:100000000C9462000C948A000C948A000C948A0070
:100010000C948A000C948A000C948A000C948A0038
:100020000C948A000C948A000C948A000C948A0028
:100030000C948A000C948A000C948A000C948A0018
:100040000C946F050C948A000C94DF050C94B90590
:100050000C948A000C948A000C948A000C948A00F8
:100060000C948A000C948A000000000024002700F1
:100070002A0000000000250028002B0000000000DE
:1000800023002600290000000008000201000003F0
:10009000040700000000000000000404040404043D
:1000A0000404020202020202030303030303010227
:1000B00004081020408001020408102001020408F6
:1000C0001020560611241FBECFEFD8E0DEBFCDBFF3
:1000D00011E0A0E0B1E0E0E2F7E102C005900D928E
:1000E000AA36B107D9F722E0AAE6B1E001C01D9215
:1000F000A332B207E1F710E0C2E6D0E004C02197D6
:10010000FE010E94880BC136D107C9F70E94A306E1
:100110000C948E0B0C940000CF92DF92EF92FF9222
:10012000CF93DF93B0911702A0E08111AB2F8091A4
:10013000180290E0880F991FAC0144585F4FC0909F
:100140001D02D0901E02E0901F02F090200230E0CD
:1001500020E0FA01C591D491E881B90190E080E0F6
:10016000EB23EA130AC02F5F3F4F6C157D058E0508
:100170009F0578F36FEF7FEFCB01DF91CF91FF9079
:10018000EF90DF90CF90089590E0FC01EA57FF4F89
:100190002491FC01E255FF4F3491FC01E656FF4FDC
:1001A000E491EE23C9F0222339F0233001F1A8F4C1
:1001B000213019F1223029F1F0E0EE0FFF1FEE5847
:1001C000FF4FA591B4918FB7F894EC91611126C0BF
:1001D00030953E233C938FBF08952730A9F02830F7
:1001E000C9F0243049F7809180008F7D03C0809151
:1001F00080008F7780938000DFCF84B58F7784BDB8
:10020000DBCF84B58F7DFBCF8091B0008F7780935B
:10021000B000D2CF8091B0008F7DF9CF3E2BDACFE6
:10022000CF93DF9390E0FC01E255FF4F2491865677
:100230009F4FFC0184918823C9F090E0880F991F9B
:10024000FC01E859FF4FA591B491FC01EE58FF4F16
:10025000C591D49161110DC09FB7F8948C912095F0
:1002600082238C938881282328839FBFDF91CF919D
:100270000895623051F49FB7F8943C91822F809595
:1002800083238C93E8812E2BEFCF8FB7F894EC91DA
:100290002E2B2C938FBFEACF3FB7F89480916B0140
:1002A00090916C01A0916D01B0916E0126B5A89B53
:1002B00005C02F3F19F00196A11DB11D3FBFBA2FF8
:1002C000A92F982F8827BC01CD01620F711D811DB8
:1002D000911D42E0660F771F881F991F4A95D1F73D
:1002E00008958F929F92AF92BF92CF92DF92EF923A
:1002F000FF924B015C010E944C016B017C010E944A
:100300004C016C197D098E099F09683E7340810577
:100310009105A8F321E0821A9108A108B10888EE9E
:10032000C80E83E0D81EE11CF11C81149104A104C5
:10033000B10429F7FF90EF90DF90CF90BF90AF907E
:100340009F908F900895CF92DF92EF92FF920F933C
:100350001F93CF93DF93CDB7DEB7C054D1400FB614
:10036000F894DEBF0FBECDBF2FB7F89480916F0118
:1003700090917001A0917101B09172012FBF4091D5
:10038000190250911A0260911B0270911C028C019B
:100390009D01041B150B260B370BB901A801403D2D
:1003A00057406105710590F480912102C05CDE4FD9
:1003B0000FB6F894DEBF0FBECDBFDF91CF911F9176
:1003C0000F91FF90EF90DF90CF90089580931902E6
:1003D00090931A02A0931B02B0931C021092140275
:1003E0001092130210921202109211021092100237
:1003F00062E0809115020E94100161E070E080E0EF
:1004000090E00E94710161E0809115020E9410014C
:1004100060E0809115020E94C4008091160285510F
:10042000823020F58BE291E10197F1F762E0809153
:1004300015020E9410018091220290E08230910505
:1004400038F0880F991F880F991F05970197F1F7CA
:10045000F89480E00E948C006F3F7F4F8F4F9F4F3A
:1004600061F410922102789480E0A0CF64E170E002
:1004700080E090E00E947101D9CF81E00E948C0061
:100480006F3F7F4F8F4F9F4F61F38E010F5F1F4F65
:100490006E018FEBC81A8EEFD80A780180E00E94B7
:1004A0008C00F701608371838283938381E00E94D3
:1004B0008C00F7016483758386839783F8E0EF0EE1
:1004C000F11CEC14FD0451F7789430E020E0F801C1
:1004D000C080D180E280F38044815581668177813C
:1004E000FFEFCF16DF06EF06FF0631F04F3F8FEF2D
:1004F00058076807780719F410922102B5CFF9015F
:1005000083E0F595E7958A95E1F7E05FFD4F8081FF
:10051000880FC416D506E606F70610F180832F5F14
:100520003F4F085F1F4F2832310589F64091140272
:100530002091100280911102280F3327331F8091E0
:100540001202280F311D80911302820F932F911DEB
:1005500099274817190681F681E08093210226CF5A
:100560008160DCCFAF92BF92CF92DF92EF92FF9289
:100570000F931F93CF93DF936C017B018B01040FCB
:10058000151FEB015E01AE18BF08C017D10759F067
:100590006991D601ED91FC910190F081E02DC601A9
:1005A0000995892B79F7C501DF91CF911F910F91A3
:1005B000FF90EF90DF90CF90BF90AF900895FC0137
:1005C000538D448D252F30E0842F90E0821B930BB8
:1005D000541710F0CF96089501970895FC01918D5E
:1005E000828D981761F0A28DAE0FBF2FB11D5D9661
:1005F0008C91928D9F5F9F73928F90E008958FEF03
:100600009FEF0895FC01918D828D981731F0828DB6
:10061000E80FF11D858D90E008958FEF9FEF08950D
:10062000FC01918D228D892F90E0805C9F4F821B71
:1006300091098F739927089583E791E00E94100331
:1006400021E0892B09F420E0822F089580E090E0DA
:10065000892B29F00E941C0381110C94000008953D
:10066000FC01A48DA80FB92FB11DA35ABF4F2C9127
:10067000848D90E001968F739927848FA689B7891E
:100680002C93A089B1898C91837080648C93938D15
:10069000848D981306C00288F389E02D80818F7DB8
:1006A00080830895EF92FF920F931F93CF93DF9370
:1006B000EC0181E0888F9B8D8C8D98131AC0E8899E
:1006C000F989808185FF15C09FB7F894EE89FF896D
:1006D0006083E889F98980818370806480839FBF0B
:1006E00081E090E0DF91CF911F910F91FF90EF900B
:1006F0000895F62E0B8D10E00F5F1F4F0F7311271B
:10070000E02E8C8D8E110CC00FB607FCFACFE88955
:10071000F989808185FFF5CFCE010E943003F1CFAA
:10072000EB8DEC0FFD2FF11DE35AFF4FF0829FB7C9
:10073000F8940B8FEA89FB8980818062CFCFCF93B9
:10074000DF93EC01888D8823B9F0AA89BB89E889F9
:10075000F9898C9185FD03C0808186FD0DC00FB69F
:1007600007FCF7CF8C9185FFF2CF808185FFEDCF1D
:10077000CE010E943003E9CFDF91CF910895FC01B3
:1007800001900020E9F73197AF01481B590BBC01DC
:1007900083E791E00C94B2028F929F92AF92BF9246
:1007A0000F931F93CF93DF93CDB7DEB7A1970FB60B
:1007B000F894DEBF0FBECDBF19A2423008F44AE064
:1007C0008E010F5D1F4F842E912CB12CA12CA50101
:1007D00094010E94660BE62FB901CA01EA30F4F4D5
:1007E000E05DD801EE938D01232B242B252B79F787
:1007F00090E080E0109719F0CD010E94BF03A19610
:100800000FB6F894DEBF0FBECDBFDF91CF911F9121
:100810000F91BF90AF909F908F900895E95CE1CFCA
:10082000CF93C82F61E00E941001EC2FF0E0EA574F
:10083000FF4FE491E33049F148F4E130C9F0E23090
:10084000F1F061E08C2FCF910C94C400E73049F1B6
:10085000E83081F1E430A9F78091800080628093D4
:10086000800086E990E090938B0080938A0005C019
:1008700084B5806884BD86E987BDCF91089584B52D
:10088000806284BD86E988BDF8CF80918000806851
:100890008093800086E990E090938900809388009F
:1008A000ECCF8091B00080688093B00086E980939F
:1008B000B300E3CF8091B00080628093B00086E9FE
:1008C0008093B400DACFCF92DF92EF92FF92CF9372
:1008D000DF936C01990FEE08FF08F7FE19C06DE277
:1008E00083E791E00E945203EC0166277727CB0152
:1008F0006C197D098E099F094AE00E94CC038C0F78
:100900009D1FDF91CF91FF90EF90DF90CF900895E2
:100910004AE0C701B601DF91CF91FF90EF90DF90E1
:10092000CF900C94CC034F925F926F927F928F92F4
:100930009F92AF92BF92CF92DF92EF92FF920F936E
:100940001F93CF936B017C01742EAC019B010E941D
:10095000610B882399F082E191E0CF911F910F9173
:10096000FF90EF90DF90CF90BF90AF909F908F90CF
:100970007F906F905F904F900C94BF03460157019A
:10098000E894B7F82FEF3FEF4FE75FE7C501B401F9
:100990000E94610B81110DC02FEF3FEF4FE75FE722
:1009A000C501B4010E94900918161CF486E191E07B
:1009B000D4CF2FEF3FEF4FE75FE4C701B6010E94AE
:1009C000EF0A18161CF48AE191E0C7CF2FEF3FEF32
:1009D0004FE75FECC701B6010E94900987FDF3CF96
:1009E00020E030E0A901C701B6010E94900910E0A3
:1009F00000E087FF0AC06DE283E791E00E945203A6
:100A00008C01F7FAF094F7F8F094C0E060E070E041
:100A100080E09FE37C1641F020E030E040E251E4CA
:100A20000E949509CF5FF6CFA70196010E94240985
:100A30002B013C010E940E0A4B015C014AE00E941E
:100A4000CC037C01E00EF11ECC23C1F1C501B40141
:100A50000E943D0A9B01AC01C301B2010E9423091F
:100A60004B015C016EE283E791E00E945203E80EC5
:100A7000F91EC15018F120E030E040E251E4C50118
:100A8000B4010E94F40A2B013C010E940E0A4B01A2
:100A9000B12CA12C4AE0C501B4010E94CC03E80EA0
:100AA000F91EC501B4010E943D0A9B01AC01C301BE
:100AB000B2010E9423094B015C01DBCFC701CF913A
:100AC0001F910F91FF90EF90DF90CF90BF90AF906C
:100AD0009F908F907F906F905F904F9008951F929E
:100AE0000F920FB60F9211242F933F938F939F93E2
:100AF000AF93BF9380916F0190917001A0917101AC
:100B0000B091720130916A0123E0230F2D3758F51F
:100B10000196A11DB11D20936A0180936F019093EE
:100B20007001A0937101B093720180916B0190915B
:100B30006C01A0916D01B0916E010196A11DB11DD6
:100B400080936B0190936C01A0936D01B0936E0143
:100B5000BF91AF919F918F913F912F910F900FBEB9
:100B60000F901F90189526E8230F0296A11DB11D26
:100B7000D2CF1F920F920FB60F9211242F933F9353
:100B80004F935F936F937F938F939F93AF93BF9395
:100B9000EF93FF9383E791E00E943003FF91EF9181
:100BA000BF91AF919F918F917F916F915F914F9185
:100BB0003F912F910F900FBE0F901F9018951F928D
:100BC0000F920FB60F9211242F938F939F93EF9351
:100BD000FF93E0918301F09184018081E09189018C
:100BE000F0918A0182FD1BC0908180918C018F5F02
:100BF0008F7320918D01821741F0E0918C01F0E01C
:100C0000ED58FE4F958F80938C01FF91EF919F914E
:100C10008F912F910F900FBE0F901F90189580818C
:100C2000F4CFCF92DF92EF92FF920F931F93E82FB2
:100C3000F92F05C0015011092109310961F1908195
:100C400096239417B9F305C0015011092109310900
:100C500011F1908196239413F7CFC12CD12CE12C64
:100C6000F12C0AC08FEFC81AD80AE80AF80A0C1546
:100C70001D052E053F0579F080818623841791F3A9
:100C80006C2D7D2D8E2D9F2D1F910F91FF90EF903C
:100C9000DF90CF90089560E070E080E090E01F91D9
:100CA0000F91FF90EF90DF90CF900895E3E7F1E090
:100CB0001382128288EE93E0A0E0B0E084839583F3
:100CC000A683B78384E091E09183808385EC90E0F4
:100CD0009587848784EC90E09787868780EC90E006
:100CE000918B808B81EC90E0938B828B82EC90E0F7
:100CF000958B848B86EC90E0978B868B118E128E71
:100D0000138E148EA0E1B2E082E015968C931597B5
:100D100086E116968C931697E0EBF0E0E491179637
:100D2000EC931797ECE9F0E0E4911896EC931897A0
:100D300040E85EE360E070E01D964D935D936D9337
:100D40007C9350970895789484B5826084BD84B56F
:100D5000816084BD85B5826085BD85B5816085BDB6
:100D600080916E00816080936E001092810080916E
:100D700081008260809381008091810081608093F6
:100D80008100809180008160809380008091B1001B
:100D900084608093B1008091B00081608093B00046
:100DA00080917A00846080937A0080917A008260DA
:100DB00080937A0080917A00816080937A0080919C
:100DC0007A00806880937A001092C100E0918301DC
:100DD000F091840182E08083E0917F01F0918001B5
:100DE0001082E0918101F09182018FEC808310925A
:100DF0008B01E0918701F091880186E08083E0918A
:100E00008501F0918601808180618083E091850178
:100E1000F0918601808188608083E0918501F09166
:100E20008601808180688083E0918501F091860150
:100E300080818F7D808362E0809115020E94100185
:100E40002FB7F89480916F0190917001A09171017A
:100E5000B09172012FBF805D9740A109B1098093C5
:100E6000190290931A02A0931B02B0931C0287E30D
:100E70008093220261E086E00E94100161E087E039
:100E80000E94100161E088E00E94100161E089E0A9
:100E90000E94100161E08AE00E94100161E08BE095
:100EA0000E94100161E08CE00E94100160E08DE082
:100EB0000E94100160E08EE00E94100161E08FE06E
:100EC0000E9410018EE191E00E94BF038AE391E04D
:100ED0000E94BF0340E0242E40E0342E80E4809343
:100EE0007C0080917A00806480937A0080917A00FF
:100EF00086FDFCCFC0917800D091790061E0C53FBC
:100F0000E1E0DE070CF460E08FE00E94C40060E0E6
:100F10008CE00E94C40083E090E00197F1F761E06B
:100F20008CE00E94C40083E290E00197F1F760E05A
:100F30008CE00E94C400EBEBF0E06491E7EAF0E0A3
:100F40008491E82FF0E0EE0FFF1FE458FF4F8591EA
:100F5000949100E412E42FE030E0462F0E94110645
:100F6000611571058105910529F06F5F7F4F8F4FE6
:100F70009F4F9F700E943F0A26E933E44BE05DE3F8
:100F80000E94F40A20E030E040E05FE30E94F40AAF
:100F90000E94070A2B01CB010197439708F045C037
:100FA00060E087E00E94C40060E088E00E94C40026
:100FB00060E08AE00E94C40060E08BE00E94C40010
:100FC00064EF71E080E090E00E94710186E00E9491
:100FD000100489E00E94100461E087E00E94C400D0
:100FE00060E088E00E94C40060E08AE00E94C400E3
:100FF00061E08BE00E94C40064EF71E080E090E06B
:101000000E9471010E94A301882341F08091160281
:101010008C3009F47DC000F58B30D9F1C12CD12C76
:1010200090ECE92E9FE7F92E5EC086E00E94100446
:1010300089E00E94100461E087E00E94C40060E043
:1010400088E00E94C40061E08AE00E94C40060E081
:101050008BE00E94C400D6CF85518230F8F6109103
:101060001202612F70E0762F662766277F778091C6
:101070001302682B90E080E00E943D0A2DEC3CECCE
:101080004CEC5DE30E94F40A6B017C0117FF2BC05E
:101090005FC06091120270E090E080E00E943D0A23
:1010A0006B017C011091130217FF0AC0AC019B0178
:1010B00060E070E080E89FEB0E9423096B017C01F7
:1010C0001F70612F70E090E080E00E943F0A2DECDD
:1010D0003CEC4CEC5DE30E94F40AA70196010E94EF
:1010E00024096B017C010E94A301882351F08091A7
:1010F00016028B3030F08D3080F18551823008F44B
:1011000090C0812C912C80ECA82E8FE7B82E43C084
:10111000B09012026B2D70E090E080E00E943D0ADA
:101120006B017C01609113026F7070E090E080E0D1
:101130000E943F0A2DEC3CEC4CEC5DE30E94F40A6B
:10114000A70196010E9424096B017C01B7FECBCF59
:10115000F7FAF094F7F8F094C6CF6091110270E0BE
:1011600090E080E00E943F0A2DEC3CEC4CEC5DE30B
:101170000E94F40A4B015C016091100270E090E063
:1011800080E00E943F0A9B01AC01C501B4010E94AE
:1011900024094B015C018DE391E00E94BF0342E012
:1011A000C701B6010E94930484E491E00E94BF034A
:1011B00089E491E00E94BF0342E0C501B4010E94AE
:1011C000930484E591E00E94BF0389E591E00E94C9
:1011D000BF03CE010E94630485E591E00E94BF0336
:1011E0008FE591E00E94BF03C2010E94630486E67E
:1011F00091E00E94BF038AE391E00E94BF0364EF85
:1012000071E080E090E00E9471012114310409F442
:1012100065CE0E941C03882309F460CE0E94000062
:101220005DCE6091100270911102762767277627B4
:1012300090E080E00E943D0A2DEC3CEC4CEC5DE33C
:101240000E94F40AA6CF5058BB27AA270E943B0948
:101250000C94B50A0E94A70A38F00E94AE0A20F04A
:1012600039F49F3F19F426F40C94A40A0EF4E09587
:10127000E7FB0C949E0AE92F0E94C60A58F3BA179E
:10128000620773078407950720F079F4A6F50C949C
:10129000E80A0EF4E0950B2EBA2FA02D0B01B90130
:1012A00090010C01CA01A0011124FF27591B99F0DC
:1012B000593F50F4503E68F11A16F040A22F232FE8
:1012C000342F4427585FF3CF469537952795A79538
:1012D000F0405395C9F77EF41F16BA0B620B730BDF
:1012E000840BBAF09150A1F0FF0FBB1F661F771F50
:1012F000881FC2F70EC0BA0F621F731F841F48F405
:10130000879577956795B795F7959E3F08F0B0CF8D
:101310009395880F08F09927EE0F97958795089574
:101320000E947A0A08F481E008950E94A9090C94A9
:10133000B50A0E94AE0A58F00E94A70A40F029F4AC
:101340005F3F29F00C949E0A51110C94E90A0C9409
:10135000A40A0E94C60A68F39923B1F3552391F3B6
:10136000951B550BBB27AA2762177307840738F014
:101370009F5F5F4F220F331F441FAA1FA9F335D071
:101380000E2E3AF0E0E832D091505040E695001C25
:10139000CAF72BD0FE2F29D0660F771F881FBB1FDF
:1013A000261737074807AB07B0E809F0BB0B802DBD
:1013B000BF01FF2793585F4F3AF09E3F510578F0E9
:1013C0000C949E0A0C94E90A5F3FE4F3983ED4F330
:1013D000869577956795B795F7959F5FC9F7880FBD
:1013E000911D9695879597F90895E1E0660F771F0F
:1013F000881FBB1F621773078407BA0720F0621BA0
:10140000730B840BBA0BEE1F88F7E09508950E94CA
:101410000E0A6894B1110C94E90A08950E94CE0A4C
:1014200088F09F5798F0B92F9927B751B0F0E1F0A5
:10143000660F771F881F991F1AF0BA95C9F714C055
:10144000B13091F00E94E80AB1E008950C94E80AE6
:10145000672F782F8827B85F39F0B93FCCF386958E
:1014600077956795B395D9F73EF4909580957095EB
:1014700061957F4F8F4F9F4F0895E89409C097FB68
:101480003EF490958095709561957F4F8F4F9F4F5B
:101490009923A9F0F92F96E9BB279395F69587959F
:1014A00077956795B795F111F8CFFAF4BB0F11F462
:1014B00060FF1BC06F5F7F4F8F4F9F4F16C0882309
:1014C00011F096E911C0772321F09EE8872F762F3F
:1014D00005C0662371F096E8862F70E060E02AF080
:1014E0009A95660F771F881FDAF7880F969587956C
:1014F00097F90895990F0008550FAA0BE0E8FEEF41
:1015000016161706E807F907C0F012161306E407C7
:10151000F50798F0621B730B840B950B39F40A26C0
:1015200061F0232B242B252B21F408950A2609F49E
:10153000A140A6958FEF811D811D089597F99F67A2
:1015400080E870E060E008959FEF80EC089500244B
:101550000A941616170618060906089500240A9418
:1015600012161306140605060895092E0394000C9E
:1015700011F4882352F0BB0F40F4BF2B11F460FF2D
:1015800004C06F5F7F4F8F4F9F4F089557FD905856
:10159000440F551F59F05F3F71F04795880F97FB37
:1015A000991F61F09F3F79F08795089512161306F1
:1015B0001406551FF2CF4695F1DF08C01616170620
:1015C0001806991FF1CF8695710561050894089555
:1015D000E894BB2766277727CB0197F908950E94E7
:1015E0007A0A08F48FEF08950E94070B0C94B50A4D
:1015F0000E94A70A38F00E94AE0A20F0952311F04D
:101600000C949E0A0C94A40A11240C94E90A0E94DA
:10161000C60A70F3959FC1F3950F50E0551F629F66
:10162000F001729FBB27F00DB11D639FAA27F00D3B
:10163000B11DAA1F649F6627B00DA11D661F829F62
:101640002227B00DA11D621F739FB00DA11D621F47
:10165000839FA00D611D221F749F3327A00D611D64
:10166000231F849F600D211D822F762F6A2F112446
:101670009F5750409AF0F1F088234AF0EE0FFF1F79
:10168000BB1F661F771F881F91505040A9F79E3FD0
:10169000510580F00C949E0A0C94E90A5F3FE4F334
:1016A000983ED4F3869577956795B795F795E79526
:1016B0009F5FC1F7FE2B880F911D9695879597F92F
:1016C00008950E947A0A880B990B0895A1E21A2EB8
:1016D000AA1BBB1BFD010DC0AA1FBB1FEE1FFF1FD6
:1016E000A217B307E407F50720F0A21BB30BE40B26
:1016F000F50B661F771F881F991F1A9469F760956D
:101700007095809590959B01AC01BD01CF01089526
:10171000EE0FFF1F0590F491E02D0994F894FFCF90
:10172000000000005203B202DF029F031003EE022A
:1017300002036E616E00696E66006F766600526F1E
:101740007665722053797374656D20496E6974698A
:10175000616C697A65642E2E2E000D0A0054656D49
:10176000703A200043207C200048756D69646974DC
:10177000793A200025207C20004761733A200044FC
:0A1780006973743A2000636D0000E5
:00000001FF
